:1000000012C0B6C16FC128C027C026C025C024C0F9
:1000100023C022C021C020C01FC01EC01DC01CC0E4
:100020001BC01AC019C011241FBECFEDCDBF10E0F8
:10003000A0E6B0E0ECE9F6E002C005900D92AC3A23
:10004000B107D9F710E0ACEAB0E001C01D92A03BC7
:10005000B107E1F7D4D220C3D3CFAC018B329105E5
:1000600019F42EE330E024C08F32910519F42FE308
:1000700030E01EC08D33910519F420E430E018C043
:10008000C0970A9720F49A012C5F3F4F11C09A0144
:10009000215430402A31310558F0CA018156904030
:1000A0004A9718F020E030E003C09A01275430400E
:1000B000C9010895CF93DF93EC01E0E0F0E020E088
:1000C00030E009C0CF0163E070E0BFD2892B11F4AA
:1000D0002F5F3F4F3196EC17FD07A0F3220F331F20
:1000E000220F331FC901DF91CF9108958F929F9204
:1000F000AF92BF92CF92DF92EF92FF920F931F9336
:10010000DF93CF9300D000D000D0CDB7DEB75B0136
:100110006A017C0160E070E040E050E000E010E047
:100120004E010894811C911C60C0FA01EE0FFF1F64
:10013000E80DF91DD7018D919C91918380834F5FCC
:100140005F4F4330510509F04AC089819A81A60169
:10015000400F511FFC01F070F695E795F695E79575
:10016000E659FF4F2081FA0120832B813C81F90160
:10017000E07FF070B4E0F695E795BA95E1F783700B
:100180009070A4E0880F991FAA95E1F7E659FF4FF8
:10019000E80FF91F8081DA0111968C93AD81BE8141
:1001A000FD01E07CF07096E0F695E7959A95E1F711
:1001B0002F703070220F331F220F331FE659FF4F6D
:1001C000E20FF31F8081FA018283AF73B070A659EA
:1001D000BF4F8C9183830C5F1F4F40E050E06F5FF7
:1001E0007F4F82E090E0E80EF91E6A157B0508F467
:1001F0009CCF4115510509F446C04130510511F419
:100200001C821B8289819A81B601600F711FFC01DB
:10021000F070F695E795F695E795E659FF4F208142
:10022000DB012C93AB81BC81FD01E07FF07034E0F9
:10023000F695E7953A95E1F78370907024E0880F82
:10024000991F2A95E1F7E659FF4FE80FF91F8081C2
:10025000FB0181834230510559F4AF70B070AA0F91
:10026000BB1FAA0FBB1FA659BF4F8C91828304C02E
:100270008DE3DB0112968C93F601E00FF11F8DE305
:1002800083830C5F1F4FC00ED11EF6011082C80180
:1002900026960FB6F894DEBF0FBECDBFCF91DF918B
:1002A0001F910F91FF90EF90DF90CF90BF90AF9094
:1002B0009F908F90089592B989B988E18AB908957D
:1002C0005D9BFECF8CB908955F9BFECF8CB10895E6
:1002D000FC0104C05D9BFECF31968CB980818823E0
:1002E000C9F708951F920F920FB60F9211242F9302
:1002F0008F939F938091AC009091AD00845F91406B
:1003000021F41092AD001092AC008091AC0090915D
:10031000AD008F5F9F4F31F483EF91E09093AD007C
:100320008093AC00849B0CC08091AC009091AD0098
:1003300097FD16C08091AC009091AD0001970CC064
:100340008091AC009091AD00855F91404CF480911C
:10035000AC009091AD0001969093AD008093AC00FD
:100360009F918F912F910F900FBE0F901F90189516
:100370001F920F920FB60F9211240F931F932F937A
:100380003F934F935F936F937F938F939F93AF931D
:10039000BF93EF93FF938091AE008823D9F4C49A62
:1003A00000E21EE4C8010197F1F7C09A80E593ECE2
:1003B0000197F1F780E690E08BDFC8010197F1F734
:1003C000C0981092AD001092AC0080E88BBF81E025
:1003D0008093AE00FF91EF91BF91AF919F918F916C
:1003E0007F916F915F914F913F912F911F910F914D
:1003F0000F900FBE0F901F901895AF92BF92CF92A3
:10040000DF92EF92FF920F931F93DF93CF9300D071
:1004100000D0CDB7DEB77C016B01009731F480E3EB
:10042000FB01808301E010E02DC000E010E05E01E0
:100430000894A11CB11CC7016AE070E006D18A30A3
:10044000910514F0895A01C0805DF501E00FF11F9C
:1004500080830F5F1F4FC7016AE070E0F6D07B0119
:100460006115710541F701501040F501E00FF11FD2
:100470000F5F1F4FD60103C080818D933197EC171A
:10048000FD07D1F70C0D1D1DF80110820F900F9084
:100490000F900F90CF91DF911F910F91FF90EF90F0
:1004A000DF90CF90BF90AF9008951F93CF93DF93CD
:1004B00010E4C0E2DEE42DC08091AE00882369F52F
:1004C0005F9BFECF8CB1833511F0982F22C0913302
:1004D00029F48091AB008133D9F40DC0923329F413
:1004E0008091AB008233A1F406C0933389F48091EC
:1004F000AB00833369F41BBF7894C09ACE01019797
:10050000F1F785E690E0E4DECE010197F1F7C098BF
:1005100093E58091AE00882379F2DF91CF911F910E
:1005200008950F931F93DF93CF93CDB7DEB72E9728
:100530000FB6F894DEBF0FBECDBFC09801C0982F94
:100540005F9BFECF8CB1833341F4923511F093E37E
:10055000F7CFC49A1092AF0007C0923581F78A3561
:1005600071F781E08093AF008091AF00882389F517
:10057000C09A8091AC009091AD00BE016F5F7F4F3B
:100580003CDF9A812B81898189871A869B871C860B
:100590002D871E8683E090E08DDD8E010B5F1F4F5F
:1005A000CE01099663E070E0A801A0DD80E29EE440
:1005B0000197F1F7C8018CDE80E197E20197F1F72E
:1005C0005D9BFECF8BE48CB980E197E20197F1F758
:1005D000C4988091AF00813039F4C39A1092AD0075
:1005E0001092AC001092AF002E960FB6F894DEBFBA
:1005F0000FBECDBFCF91DF911F910F91089512B81B
:100600008CE089B988E18AB9B89AC09887B38861C3
:1006100087BB8A9892988B988C98939A949A8FE03B
:1006200085BF1092AE0041DF88E893E128EC30E00E
:10063000F9013197F1F70197D9F7C398C49810924F
:10064000AD001092AC006DDFFECF97FB092E0726A0
:100650000AD077FD04D00CD006D000201AF4709593
:1006600061957F4F0895F6F7909581959F4F089576
:10067000AA1BBB1B51E107C0AA1FBB1FA617B707C8
:1006800010F0A61BB70B881F991F5A95A9F78095E4
:0C0690009095BC01CD010895F894FFCFB7
:10069C005233504B0052334E4B004142434445467B
:1006AC004748494A4B4C4D4E4F5051525354555656
:1006BC005758595A6162636465666768696A6B6CFE
:1006CC006D6E6F707172737475767778797A30316C
:0C06DC0032333435363738392B2F0033D9
:00000001FF
